:020000040800F2
:10000000709C00209902000839260008CD240008C1
:100010001D260008851B0008F534000800000000BC
:10002000000000000000000000000000212900087E
:10003000CD1B000800000000992700081D2A0008B9
:10004000AF020008AF020008AF020008AF020008CC
:10005000AF020008AF020008AF020008AF020008BC
:10006000AF020008AF020008AF020008AF020008AC
:10007000AF020008AF020008AF020008AF0200089C
:10008000AF020008AF020008AF020008AF0200088C
:10009000AF020008AF020008AF020008AF0200087C
:1000A000AF020008AF020008AF020008AF0200086C
:1000B000F12C0008AF020008AF020008AF020008F0
:1000C000AF020008AF020008AF020008AF0200084C
:1000D000AF020008492E0008852F0008AF02000873
:1000E00045220008AF020008AF020008000000002F
:1000F0000000000000000000000000000000000000
:100100000000000000000000AF020008AF0200087D
:100110003D2D0008812D0008AF020008AF02000845
:10012000AF020008AF020008AF020008AF020008EB
:10013000AF020008DD1D0008AF020008AF02000892
:10014000AF020008AF020008AF020008AF020008CB
:1001500000F002F800F090F80AA090E8000C824449
:100160008344AAF10107DA4501D100F085F8AFF226
:10017000090EBAE80F0013F0010F18BFFB1A43F085
:1001800001031847906E0000B06E0000103A24BFC3
:1001900078C878C1FAD8520724BF30C830C144BFEC
:1001A00004680C607047000000230024002500262E
:1001B000103A28BF78C1FBD8520728BF30C148BFCA
:1001C0000B6070476E2900F0A383702900F0FF8454
:1001D000662906F08B86652906F08886672906F071
:1001E00085866129AFF3008003681B0A28BF41F0B0
:1001F0008001692900F0AA80642900F0A780752990
:1002000000F0A4806F2900F08C84782900F0CB8462
:10021000E92900F02784E42900F02484F52900F07E
:100220002184EF2900F08984F82900F0CA8403684A
:10023000DB0928BF41F08001632900F0638773293F
:1002400000F06887E32900F07387F32900F07887CE
:10025000002070471FB500F0C9FF040000200021F6
:1002600006F02EFE401C60600020002106F012FE09
:10027000E0601FBD10B510BD00F08AFF1146FFF70A
:10028000E9FF04F0F1F901F067F803B4FFF7F2FFBA
:1002900003BC03F04BF9000008480047FEE7FEE707
:1002A000FEE7FEE7FEE7FEE7FEE7FEE7FEE7FEE726
:1002B00003480449044A054B7047000051010008F7
:1002C00070960020709C002070980020709800208C
:1002D000704700007CB51D4616460C00009001D00A
:1002E0002044401E074B7B442A4669460190304615
:1002F00000F027FB05461CB10020694600F034FBE6
:1003000028467CBD890600000FB4044910B503AA35
:10031000029800F037FB10BC5DF814FBD4000020FD
:100320000FB41CB5084B06AA7B446946009005989B
:1003300000F007FB04460020694600F015FB20464C
:100340001CBC5DF814FB00003D0600002DE9F041E7
:100350000646002410687529314616A510D000F015
:1003600043FA002802DA404213A507E031688A0701
:1003700001D512A502E0490704D511A5012401E029
:1003800000F03BFA00210A2206F1240709E0B0FB45
:10039000F2FCB0FBF2F302FB1C003030785418463C
:1003A000491C0028F3D123462A463046BDE8F041D7
:1003B00000F055BA000000002D0000002B000000E6
:1003C000200000002DE9F05F894604464FF0000A46
:1003D000DFF874B1FB44C0F820A02046E1688847EC
:1003E000002874D0252806D0D4E901219047206A3E
:1003F000401C2062F1E700265F462046E1688847FE
:100400002028054607DB312D05D2781910F8200C7D
:1004100008B10643F1E7B00701D526F00406C4F899
:100420001CA00027C4F818A02A2D09D0284603F0E4
:1004300076F838B304EB8708303DC8F8185019E057
:1004400059F8041B204604EB87029161E168884754
:10045000012F054618D1E069002820DA26F0200691
:100460001DE0D8F8180000EB800005EB40003038A4
:10047000C8F818002046E1688847054603F04FF8A1
:100480000028EED1012F0AD02E2D08D12046E16898
:1004900088477F1C0546022F46F02006C4DBA06972
:1004A000002803DA404246F00106A061F00701D0BF
:1004B00026F010066C2D0BD0682D09D04C2D39D0AC
:1004C0006A2D35D0742D35D07A2D33D016E038E032
:1004D000E1682F4620468847B842054609D16C2F6F
:1004E00026D04FF48060E1680643204688470546E1
:1004F00004E06C2F1AD04FF4807006430DB3A5F1C1
:100500004100192802D8203546F400664A4629469B
:10051000204626604E46FFF755FE80B101280BD0DD
:10052000F61D26F0070000F1080956E74020E4E731
:100530008020D8E70020D6E706F104094DE72846D9
:1005400052E7206ABDE8F09F646B000010B5431CC1
:1005500002E010F8011B71B18107FAD14FF00132AE
:1005600002C88C1A8C4314EAC211F9D0C01A0A06C8
:1005700003D0C01E10BDC01A10BD0A0401D0801ED9
:1005800010BD0902FCD0401E10BD40EA010370B549
:100590009B072ED14FF00136042A2AD308C810C970
:1005A0009D1B9D43121F15EAC61517D0D8B2E1B2A4
:1005B000401A50EA056110D198B2A1B2401A50EA2F
:1005C00005410AD123F07F4024F07F41401A50EAD0
:1005D000052102D1180EA0EB146070BDA342DBD040
:1005E00018BA21BA884201D9012070BD4FF0FF30FE
:1005F00070BD0AB9002070BD10F8013B11F8014B25
:1006000063B1A3420AD1521E08D010F8013B11F881
:10061000014B1BB1A34201D1521EEDD1181B70BD7D
:10062000032A40F2308010F0030C00F0158011F81E
:10063000013BBCF1020F624498BF11F801CB00F8F6
:10064000013B38BF11F8013BA2F1040298BF00F84A
:1006500001CB38BF00F8013B11F0030300F0C28268
:10066000083AC0F0088051F8043B083A51F804CB2E
:10067000A0E80810F5E7121D5CBF51F8043B40F8F4
:10068000043BAFF30080D20724BF11F8013B11F8FF
:1006900001CB48BF11F8012B24BF00F8013B00F843
:1006A00001CB48BF00F8012B70474FF0000204292E
:1006B000C0F0128010F0030C00F01B80CCF1040C91
:1006C000BCF1020F18BF00F8012BA8BF20F8022BC5
:1006D000A1EB0C0100F00DB85FEAC17C24BF00F86B
:1006E000012B00F8012B48BF00F8012B70474FF099
:1006F000000200B5134694469646203922BFA0E872
:100700000C50A0E80C50B1F12001BFF4F7AF09077D
:1007100028BFA0E80C5048BF0CC05DF804EB89006E
:1007200028BF40F8042B08BF704748BF20F8022BB1
:1007300011F0804F18BF00F8012B704710B5044628
:1007400010F0030F08BF11F0030F40F015804FF0B9
:10075000013E121FC0F20E8051F8043BA3EB0E0CB9
:100760002CEA030C1CEACE1C08BF40F8043BF0D076
:10077000A1F1040102F10402521E08DB11F8013B51
:10078000002B00F8013BF7D11146FFF78EFF204602
:1007900010BD704770477047704770B50446856953
:1007A0000068C10601D5302600E02026C00707D02A
:1007B00070BDD4E9012130469047206A401C206278
:1007C0006D1EF6D570BD70B5044685690078C0070A
:1007D00007D170BDD4E9012120209047206A401C38
:1007E00020626D1EF6D570BD09684A0501D540B27C
:1007F0007047C905FCD500B2704709684A0501D5A4
:10080000C0B27047C905FCD580B2704770B50C46C0
:100810000546012A05D02878800600D5EA6900231C
:1008200002E0012305E05B1C934202D2E05C002859
:10083000F9D1A869E618C01AA861286A1844286284
:100840002846FFF7AAFF04E0D5E9012114F8010BBF
:100850009047B442F8D32846FFF7B5FF70BD2DE9A5
:10086000F0470D4699469246044600F12408016877
:10087000880604D5E06921F01001216000E0012024
:10088000A84201DD471B00E00027A1697A1902EBAD
:100890000900081AA0612078C00602D42046FFF79C
:1008A0007CFF002608E0D4E901211AF806009047F1
:1008B000206A401C761C20624E45F4DB2078C0067E
:1008C0000AD52046FFF769FF06E0D4E90121302070
:1008D0009047206A401C2062381EA7F10107F4DC13
:1008E00007E0D4E9012118F805009047206A401C70
:1008F0002062281EA5F10105F3DC2046FFF763FF07
:100900002078000602D50220BDE8F0870120FBE731
:1009100011680268006A530501D508700AE0D30522
:1009200001D5088006E0130603D5C217C1E900020D
:1009300000E008600120704701694A1C02610878E4
:10094000704700B58FB0CDE901310021059105490F
:100950007944CDE9031011466846FFF733FD0FB027
:1009600000BD0000E5FFFFFF0A6802F8010B0A6006
:100970007047D1E900239A4202D2531C0B601070D9
:1009800070470000074B70B50D467B44FFF7D9FF59
:100990000446284600F0D8FB10B14FF0FF3070BD80
:1009A000204670BD1F3200002DE9FF5F15468A46C4
:1009B0000446DFF8AC80F8440027D8E900103E4632
:1009C000CDE9001010E03AF816106A4602A800F0CF
:1009D000BFFB411C07D02178890603D5E26939188D
:1009E00091420DD80744761C2078800602D5E06934
:1009F000B84205DDAE42E6DB3AF816000028E2D147
:100A0000A069C01BA0612046FFF7C7FED8E900100F
:100A1000CDE90010002017E03AF818106A4602A845
:100A200000F096FBB0F1FF3F81460BD000250DF1A1
:100A3000080B05E0D4E901211BF8050090476D1C67
:100A40004D45F7D308F10100B0428046E4DB206A4F
:100A5000384420622046FFF7B6FEBDE8FF9F000045
:100A6000966500002DE9F0418046D21D22F0070274
:100A70000025D2E90002F52915A614D0011E72F155
:100A8000000106DA0023D0EB030063EB020211A69B
:100A900008E0D8F800108B0701D50FA602E049073F
:100AA00001D50EA601251146002408F1240704E013
:100AB00000F0CAF830323A55641C50EA0102F7D10E
:100AC0002B46324621464046BDE8F041FFF7C7BEFF
:100AD000000000002D0000002B000000200000009E
:100AE00030B4002100F1240408E002F00705D20828
:100AF000303542EA4372DB086554491C52EA03056B
:100B0000F3D10468002310A2250707D5A40600D45A
:100B100021B1C46901230DA2641EC46130BCFFF77A
:100B20009EBE10B5044621461068FFF766FE0246D9
:100B30002046BDE810400023D2E7D21D22F0070175
:100B4000D1E90023CCE700000000000030000000E5
:100B5000F0B40D460188090502D5214C7C4402E021
:100B60001F4C7C440E34002100F1240608E002F002
:100B70000F071209E75D42EA03721B097754491C0B
:100B800052EA0307F3D102780023120704D5702D2F
:100B900006D009B1022311342246F0BCFFF75FBE34
:100BA00001231034F8E770B504460D46214610685D
:100BB000FFF723FE024629462046BDE87040002389
:100BC000C6E7D21D22F00703D3E90023C0E703687C
:100BD000126843F0200303600823C3610023B7E7D2
:100BE000F863000010B5203AC0F00B80B1E818504F
:100BF000203AA0E81850B1E81850A0E81850BFF407
:100C0000F5AF5FEA027C24BFB1E81850A0E81850A5
:100C100044BF18C918C0BDE810405FEA827C24BFF9
:100C200051F8043B40F8043B08BF7047D20728BF87
:100C300031F8023B48BF11F8012B28BF20F8023BD6
:100C400048BF00F8012B704730B5B0F10A024FEAF7
:100C5000900E71F100034EEA817EB0EB0E0061EB65
:100C600091014FEA101E4EEA017E10EB0E0041EB9F
:100C700011114FEA102E4EEA016E10EB0E0041EBFF
:100C800011214FEA104E4EEA014E10EB0E0041EBDF
:100C90001141401841F100014FEAD00040EA417093
:100CA0004FEAD10110EB80054FEA810444EA9074C9
:100CB00044EB01046D1944EB0404521BA3414FF0B3
:100CC000000348BF0A3200D530BD401C41F100018D
:100CD00030BD70472DE9FF4F0C461E464FF0FF37E1
:100CE0008BB0D2E90001DDF860800A908A46C1F33A
:100CF0000A5505B93D46002108464FF00000BAF1FB
:100D0000000F00F4400005DA00EB80004FF44001D2
:100D100001EA50004FEA9059B9F1010F00DDB946E0
:100D20000A9850EA4A000ED044F61050A5F2FF355A
:100D300045432F14B8F1000F1ED07542291E1EDD49
:100D4000C9F100021CE0B8F1010F4FF0000001D022
:100D5000302103E0F24305E02154401CB042FBDBAC
:100D600030460022002121540B99C1F80880C1E9C6
:100D700000200FB0BDE8F08FBD1B6D1CDEE74A46BA
:100D800000DA694206A800F075FA06AB93E807009E
:100D900003AB83E8070050460A9900F02BFB8DE86F
:100DA0000700A0F500501F3800900398002D0ADDC1
:100DB00042F21F014A460844002303A903906846F3
:100DC00000F094FD09E0A0F500504A461F380023CA
:100DD00003A90390684600F09EFD8DE8070000041B
:100DE000000C03D04FF0FF30410800E01046B8F18E
:100DF000000F03D00022009215461EE0751E05D498
:100E0000FFF722FF303262556D1EF9D5B34601223D
:100E1000084302D000227F1C04E02078302801D152
:100E200000227F1E002A099784D01DE0112D07DAC9
:100E3000FFF70AFF303262556D1C50EA0102F5D10E
:100E4000084302D00098C8B10EE00021681E05E0FA
:100E5000235C625C63542254401E491C8142F7DBD0
:100E6000AB46A81B401E0990002004F80B000B980D
:100E7000099AC0F80880C0E9002B7AE711264FF0E4
:100E8000000857E72DE9F04F88460446D21D22F0AE
:100E9000070191B0D1E90001CDE90A0102F02BFB75
:100EA00002460B98C00F01D02D2007E02068810773
:100EB00001D52B2002E0202101EAC000032A09907D
:100EC00001D0072A05DB03464146204600F092F98F
:100ED0000BE12078800601D5E06900E00620B8F13A
:100EE000650F814606D0B8F1660F18D0B8F1670FCC
:100EF00070D131E00020B9F1110F009001DB112316
:100F000001E009F101030AAA01A90CA8FFF7E2FE1A
:100F1000DDE90C70002609F10105834647E0012058
:100F20004B4600904FF000470AAA01A90CA8FFF712
:100F3000D1FEDDE90DB00C995D46002610B909F12E
:100F400001000D18B9EB050003D4C0F1FF3609F11B
:100F50000105A5EB09002BE0B9F1010F01DA4FF013
:100F600001090020B9F1110F0090484601DD11235D
:100F700000E003460AAA01A90CA8FFF7ABFEDDE9D1
:100F80000C704D4600268346207800070AD4AB45F6
:100F900000DA5D4601A8012D04DD411911F8011C9C
:100FA000302907D04F4502DA17F1040F04DA012087
:100FB00082460FE06D1EEEE7002F02DCED1B3E4483
:100FC00003E0781CA84200DD7D1CB81B00F1010A7B
:100FD0004FF000472078000703D4AA4501DB4FF00B
:100FE000FF3A0021B7F1004F0DF143088DF843108F
:100FF00024D002202B23002F01DA7F422D230A2147
:10100000021EA0F1010000DC5FB197FBF1FC97FB31
:10101000F1F201FB1C7C17460CF1300C08F801CDF5
:10102000EEE7A8F1010003702188090501D54521EB
:1010300000E06521A0F1010800F8011C09980FA942
:10104000A1EB0807FF1D00B10120411901EBEA7077
:10105000A1693844081A401EA0612078C00602D455
:101060002046FFF79AFB099828B1D4E9012190475F
:10107000206A401C20622078C00622D52046FFF757
:101080008CFB1EE0002E04DBB34502DD01A8805D71
:1010900000E03020D4E901219047206A401C206202
:1010A000761CAAF101005FEA000A0AD100F09EF85E
:1010B000C0680168405CD4E901219047206A401C67
:1010C0002062281EA5F10105DCDC07E0D4E901213E
:1010D00018F8010B9047206A401C2062381EA7F1C7
:1010E0000107F3DC2046FFF76EFB032011B041E659
:1010F00010B5436913B1AFF3008001E0FFF786FB41
:10110000012010BD127800F124010A7000224A70FB
:101110000122EDE711684FF0FF32E9E710B54369AE
:1011200013B1AFF3008001E0FFF73EFC012010BDDA
:10113000128800F1240182840022C2840122EDE79A
:1011400011684FF0FF32E9E7007B00F08000704744
:1011500070B516460C46054600F040F8036893F853
:101160000101012806D0FF2C0FD8185D68B10120BD
:101170002C7070BDD3F807013246214603F20713E5
:1011800003442846BDE8704018474FF0FF3070BD5B
:10119000754600F0EBF8AE4605006946534620F070
:1011A0000700854618B020B5FFF782F8BDE820405B
:1011B0004FF000064FF000074FF000084FF0000B13
:1011C00021F00701AC46ACE8C009ACE8C009ACE8C6
:1011D000C009ACE8C0098D467047000010B500F0AA
:1011E00005F8001D10BD00BFD95C00000048704725
:1011F0002C9600202DE9F0411F4604460326016885
:10120000072A01F4006004DB08B116A505E016A565
:1012100003E008B115A500E015A521F0100020603D
:10122000A069C01EA0610FB1401EA0612046FFF75B
:10123000B4FA4FB1D4E9012138469047206A401CE6
:101240002062C01C206206E0206AFAE7D4E901218E
:1012500015F8010B9047761EF8D22046FFF7B3FA37
:10126000BDE8F0814E414E006E616E00494E460071
:10127000696E66002DE9F047814616468AB035480A
:1012800078440DC88DE80D0032487844801C03ACCA
:101290000DC884E80D0041F69B300844372190FBCF
:1012A000F1F290FBF1F5A5F1800501FB12041B3C66
:1012B00002D56442012000E00020DFF898A08046BB
:1012C0000027FA44AAF1BE0A0EE0E0070AD032462F
:1012D000684607EB470101230AEB810100F01BFB85
:1012E0008DE8070064107F1C002CEED1194F7F445D
:1012F000AE3F19E0E80715D007EB04100DF1180A0E
:1013000090E80E008AE80E00C068F04201D19819FA
:1013100008903246012306A903A800F0FCFA03ABAB
:1013200083E807006D10641C002DE3D14FF001032A
:1013300032466946B8F1000F03A802D000F0D6FA91
:1013400001E000F0E8FAC9E90001C9F808200AB094
:10135000BDE8F087785D000010B50446AFF300806B
:101360002046BDE81040FEF790BF000000487047DF
:101370000C9600204FF0013C50F8042B51F8043B30
:101380009A4221D1A2EB0C03934313EACC1317D159
:1013900050F8042B51F8043B9A4215D1A2EB0C03F0
:1013A000934313EACC130BD150F8042B51F8043BB0
:1013B0009A4209D1A2EB0C03934313EACC13DBD07E
:1013C0004FF00000704700BFD01A01BAB1FA81F1A6
:1013D00001F0180122FA01F0CB40C1F12001DBB28B
:1013E000C0B2C01A2CFA01F3D11A914311EAC31109
:1013F000E6D170475FEA400C08BF91F0000F4FEA5A
:101400008C234FEAC12243EA51514FEA1C5018BFC6
:1014100000F5F0404FEA300018BF41F000415FEAAC
:101420006C5C00F02980BCF1FF3F08BF40F08040B9
:101430007047130C06BF12044FF0100C4FF0000C55
:10144000130E04BF12020CF1080C130F04BF12019B
:101450000CF1040C930F04BF92000CF1020CD30F9B
:1014600004BF52000CF1010C11464FF00002A0F134
:101470001F00A0EB0C00704711F0004F08BF704731
:1014800031F000413FF4D5AF0B0C06BF09044FF01B
:10149000100C4FF0000C0B0E04BF09020CF1080CED
:1014A0000B0F04BF09010CF1040C8B0F04BF890062
:1014B0000CF1020CCB0F04BF49000CF1010CCCF174
:1014C0002003A0EB0C0022FA03F302FA0CF241EA2B
:1014D000030100F10100704720F07F4C80EA030017
:1014E00023F07F47ACEB070303F57C5300F000408B
:1014F00003F1FF032DE980494FEA154B09B44FEA88
:10150000144325EA0B4E24EA03480FF2042606EBA7
:10151000132749083E785FEA320203FB0667C7F5E6
:10152000000707FB06F64FEA54374FEAD64606F1A6
:10153000020607FB066CCCF1005C4FEA1C472CEA64
:10154000074C07FB06F40CFB06F504EB15464FEAC7
:10155000961634BF00204FF000404FEAD13706FB0B
:1015600007FC4FEA1C4C0CFB0BF7D21B03FB0CF7E0
:1015700061EB07010CFB0EF7B0EB074072EB174273
:101580000CFB08F734BFA2EB0742B2EB074261EB5A
:1015900017414FEA0C444FEA910706FB07FC4FEA5C
:1015A0001C4C0CFB0BF7B0EBC74072EB573203FB44
:1015B0000CF734BFA2EBC742B2EBC74261EB573125
:1015C0000CFB0EF7B0EBC70072EB57720CFB08F781
:1015D00034BFA2EBC702B2EBC70261EB5771039FA6
:1015E0004FEA816141EA921104EBCC044FEAD13712
:1015F0004FEA826206FB07FC42EA90124FEA8060E3
:101600004FEA1C4C0CFB0BF7D21B03FB0CF761EBF6
:1016100007010CFB0EF7B0EB074072EB17420CFB17
:1016200008F734BFA2EB0742B2EB074261EB174168
:101630004FEA8C554FEA910704EB9C2406FB07FC0C
:101640004FEA1C4C0CFB0BF7B0EBC74072EB573268
:1016500003FB0CF734BFA2EBC742B2EBC74261EB0E
:1016600057310CFB0EF7B0EBC70072EB57720CFB57
:1016700008F734BFA2EBC702B2EBC70261EB5771A8
:1016800015EB4C254FEA816141EA92114FEA8262E3
:101690004FEAD13742EA901206FB07FC44F10004FE
:1016A0004FEA80604FEA1C4C0CFB0BF7D21B03FB8C
:1016B0000CF761EB07010CFB0EF7B0EB074072EB88
:1016C00017420CFB08F734BFA2EB0742B2EB07420C
:1016D00061EB174115EB1C154FEA813141EA92414C
:1016E0004FEA823242EA90424FEA80304FEA0C766B
:1016F00044F1000448EA03434EEA0B484FF0000E61
:10170000B2EB080C71EB030724BF624639464EEB7F
:101710000E0E4FF0000B0018524149414BEB0B0BE2
:10172000B2EB080C71EB03077BF1000B24BF6246A0
:1017300039464EEB0E0E4FF0000B00185241494156
:101740004BEB0B0BB2EB080C71EB03077BF1000BBF
:1017500024BF624639464EEB0E0E51EA020718BF0F
:1017600046F0010616EB0E7655F1000254F1000129
:1017700003D5BDE88901BDE80088BDE88901BDE861
:101780000048B619524141EB0101A3F10103704732
:1017900080807F7E7D7C7B7A7978777676757473AE
:1017A000727171706F6E6E6D6C6C6B6A6A6968686D
:1017B000676666656464636362616160605F5F5E03
:1017C0005E5D5D5C5C5B5B5A5A5959585857575679
:1017D00056555555545453535252525151505050DE
:1017E0004F4F4F4E4E4D4D4D4C4C4C4B4B4B4A4A30
:1017F0004A49494948484847474747464646454574
:1018000045444444444343434342424242414141AC
:10181000002B9C4630D477002BD01CB54FEA3707FD
:1018200003B44FF010004FF01001BAF1000F06D0D2
:10183000BCF1000FDCBF40F0080040F008014FF0A1
:1018400000000FBCBDE810400BF1010BBBF1010F14
:1018500008BF5FEA170722BF12F1010211F101016F
:101860004FF0004143F1000300F0004043EA000064
:101870007047F9D35708D0E746EA064613F1400F00
:101880004FEA16461FDD13F1200FDFBF16430A464D
:10189000002120335B42BED0C3F1200746EA064652
:1018A00002FA07F74FEA164646EA0706C3F1200791
:1018B00022FA03F201FA07F721FA03F14FF00003CD
:1018C00042EA0702A7E746EA020646EA06464FEA68
:1018D000164646EA0106BCBF46EA0646360C4FF0FD
:1018E00000034FF000024FF0000194E72DE9804C17
:1018F0009A46934670B491E8380007C831EA400C24
:1019000048BF34EA430C03D5FFF7E6FDFFF780FF3D
:10191000F0BCBDE8008C2DE9804C9A46934670B42B
:1019200091E8380007C810F0804F08BF13F0804FCF
:1019300003D100F005F8FFF76BFFF0BCBDE8008CA9
:1019400020F07F4780EA030023F07F4C07EB0C0375
:10195000A3F57C5300F00040A3F1FE0392F0000FCA
:1019600000F0B38095F0000F00F077802DE9014979
:101970004FEA11404FEA144621EA004800FB06FCFA
:1019800024EA064708FB06F607FB08F800FB07F702
:1019900018EB06484CEB164C4FEA124B18EB074875
:1019A0004FEA15464CEB174022EA0B4E0BFB06FCA8
:1019B00025EA06470EFB06F607FB0EFE0BFB07F7B4
:1019C0001EEB064E4CEB164C4FF000061EEB074E7E
:1019D0004CEB174B18EB0B0840F1000018EB0E0B0B
:1019E00058EB000840F100008F1A4FF000013CBF97
:1019F000C943661B14BFB5EB040C00213CBFC943AF
:101A0000F61B4FEA17444EEA8E0E27EA04454FEACA
:101A10001C4704FB07622CEA074C05FB07F70CFB8D
:101A200005F604FB0CFC16EB074642EB174216EBDF
:101A30000C4642EB1C421BEB060658EB02024141EE
:101A400046EA9E0601D5BDE80189B619524141EB2F
:101A50000101A3F10103BDE801894FEA14454FEAF2
:101A6000114724EA054621EA074C05FB07F406FB6B
:101A700007F70CFB06F105FB0CFC11EB074144EBEF
:101A800017444FEA124711EB0C4144EB1C4422EA85
:101A9000074C05FB07F206FB07F70CFB06F605FBF8
:101AA0000CFC16EB074642EB174216EB0C4642EBDA
:101AB0001C456A1854F1000148BF7047B6195241DD
:101AC00041EB0101A3F10103704795F0000F37D0FE
:101AD0004FEA11424FEA144721EA024624EA074C32
:101AE00002FB07F106FB07F70CFB06F402FB0CFCFC
:101AF00014EB074441EB17414FEA154714EB0C4434
:101B000041EB1C4125EA074C02FB07F506FB07F7F2
:101B10000CFB06F602FB0CFC16EB074645EB1745E3
:101B200016EB0C4645EB1C42121951F1000148BF5F
:101B30007047B619524141EB0101A3F1010370470F
:101B40004FEA14454FEA114724EA054621EA074CBB
:101B500005FB07F106FB07F70CFB06F24FF000064A
:101B600005FB0CFC12EB074241EB174112EB0C4258
:101B700051EB1C4148BF7047921841EB0101A3F1A2
:101B800001037047FEE700001CB50E4C00220E4812
:101B900022700123006803E0017C042910D0C06892
:101BA0000028F9D1002A0AD1C020CDE90030024630
:101BB00041F69671A823881C00F09EFF00201CBDF2
:101BC00023701CBD20000020700000207047401EC4
:101BD000FDD1704701B5154988B00898CA68801AC8
:101BE000FA2820D30898C86011488A684068904253
:101BF00019D08860010E8DF80810010C8DF80910BD
:101C0000010A8DF80A108DF80B009DF808109DF858
:101C100009009DF80A30CDE900019DF80B2005A1CF
:101C200003A8FEF77DFB09B000BD000010000020F6
:101C3000D800002020202025642E25642E25642E27
:101C400025642020202000000149486170470000E1
:101C500000900240044A0029D16901D0014300E00C
:101C60008143D1617047000000900240054900287F
:101C7000886902D040F0020001E020F00200886193
:101C80007047000000900240F0B5104C00234FF068
:101C9000004744F2F05C561E606012E000EB031453
:101CA000C3EB431505EB831501EB05152760C4E96C
:101CB00001C5B34203D204F11005E56000E0E06025
:101CC0005B1C9342EAD30249C860F0BD4400002087
:101CD00000900240426811B122F0004101E042F060
:101CE000004141607047000005490028886902D022
:101CF00040F4005001E020F400508861704700007B
:101D000000900240F0B50F4C00234FF48016551E92
:101D1000206011E0C3EB431700EB031407EB8317BC
:101D200001EB0717A7602660AB4203D204F110074E
:101D3000E76000E0E0605B1C9342EBD3024908617E
:101D4000F0BD0000440000200090024002680A43F9
:101D50000260704710B501218C03204600F02AFD77
:101D60002046BDE81040002100F024BD01B581B03F
:101D700001980090002801D0401EFAE70CBD000039
:101D80000248816941F480118161704700900240EE
:101D90000148006880687047440000200068C0F374
:101DA0000D407047074900204A68116811F0802FE4
:101DB00006D1CB0504D5890502D51046FFF7EEBF45
:101DC0007047000044000020034900200968C9074B
:101DD00000D00120704700000090024010B501E0E3
:101DE00000F016FCFFF7DEFF0028F9D14020FFF7D6
:101DF0002BFFBDE810404FF48030FFF725BF0000F7
:101E00002DE9F04188B00027754E044600970197F0
:101E10003069884620F01C0502A800F0EFFC7149EB
:101E20000398714A0144914202D245F0080506E048
:101E30006E4908446E49884201D245F00C0535616F
:101E40004FF400420021404600F0D2F900282DD086
:101E50006848FFF78BFF2068B0B3674D01980121F8
:101E6000401C0190404600F0F9F8400702D4019868
:101E7000A842F3D30198A84217D04FF48052002112
:101E80004046019700F0B4F900280FD001980121D5
:101E9000401C0190404600F0E1F8800602D4019811
:101EA000A842F3D30198A84203D1002008B0BDE8AE
:101EB000F08110214046019700F0D0F8410704D589
:101EC0004FF40061216201E008E02762800701D53C
:101ED000676113E04FF4804060610FE0206A616940
:101EE000C00840EA510082B20021404600F080F96B
:101EF0000028DBD06FF07F40FFF738FF30683F49A4
:101F00000840D4E901121143E26854F8103F1A4323
:101F1000114362681143A2681143E26811432269C8
:101F2000114362691143A2691143E2691143226AB4
:101F30001143626A114301433160F4E90A01084325
:101F4000D4E9021211430843216908436169084337
:101F5000A1690843E16908437060206AB060606A63
:101F6000F060B0694FF641710840D4E90B1211439B
:101F7000238D626B42EA03421143A26B1143E26B71
:101F800011430143B161D4E910010843F0611C48D9
:101F900081691C4A1140D4E912231A43D4E914354B
:101FA0002B431A43A36D1A43E36D1A43236E1A435E
:101FB000636E1A43A36E1A430A438261D4E91B126B
:101FC0001143626F54F8783F1A431143626841EA43
:101FD0008201A268114341F400010160012065E71C
:101FE0000080024000D3CEFEC0E1E40040F1E9FDF4
:101FF00040787D01FFFF0F00FFFF04000F8120FFED
:1020000000900240233FDEF8054B8A8818440264A2
:102010000A78D1F8011042EA0121416470470000BA
:102020000080024005490028086802D040F0040002
:1020300001E020F0040008607047000000800240CA
:1020400005490028086802D040F0080001E020F0AF
:1020500008000860704700000080024018B50022A8
:102060000092124A13694FF6FF7403F01C0304EA4E
:10207000C02018434FF4F86303EA8111014321F0B3
:10208000020040F00100106109490098401C0090D6
:102090001069C00702D000988842F6D300988842A1
:1020A00001D1002018BD506980B218BD00800240E7
:1020B000FFFF040070B5114D002422462B681968FB
:1020C00000290BDA0E4916464B691B0602D5802300
:1020D0004B618E6002604260826070BD0E0407D466
:1020E000CE0505D58E0503D5C1F30D449A68241F8E
:1020F000D96829600460C0E9012370BD4800002050
:10210000009002400248016841F0010101607047FF
:102110000090024000B50120FFF792FFFFF730FE6C
:102120000120FFF77FFF0120FFF7DEFD01205DF8B2
:1021300004EBFFF79BBD0021016041608160C1603D
:10214000016141618161C161016241628162C1627B
:102150000163416340228163C0E90F122022C0E97C
:102160001121C1640165416581658022C165C0E9B5
:1021700018128166C16601674167D2048167C0E9B0
:102180001F1252105310C0E921231311C0E923314B
:10219000C0F89410C0F89810C0F89C10C0E928123C
:1021A0001212C0E92A125212C0E92C21C0F8B8104C
:1021B000704700000C4B19680A68002A01DA0020F9
:1021C0007047C0F30C00486042F030400860074898
:1021D0004269520703D50422426100224260C86866
:1021E0001860012070470000440000200090024069
:1021F00038B500230093114B1C694FF6FF7504F0AE
:102200001C0405EAC02020434FF4F86404EA81115D
:10221000014341F003005A61186109490098401CCC
:1022200000901869C00702D000988842F6D3009841
:10223000884201D1002038BD012038BD0080024015
:10224000FFFF04007047000000B5AFB0012000F0B0
:10225000C1F84FF4004000F059FB012000F050FBA2
:102260003D2000F02FFB0028FAD00B2000F042FBAD
:10227000FFF770FDFFF746FFFFF7A6FD0128FBD033
:102280006846FFF758FF0120009000204FF40071CE
:10229000CDE90A10090407901190CDE920010E90B4
:1022A000149013900A1115902590269023920420E3
:1022B000CDE9280180032A9080012B9040122C90B8
:1022C00040002E9001216846FFF79AFD0121024847
:1022D000FFF7C0FC2FB000BD400001002DE9F8431E
:1022E0000425ADF800500324DFF8D8908DF80240A3
:1022F00018268DF803606946484600F071F80620FC
:10230000ADF80000304F8DF802408DF8036069464B
:10231000384600F065F843F62010ADF80000DFF80D
:10232000AC808DF802408DF803606946404600F0AD
:1023300057F801214FF0201000F0A0F80B20ADF865
:1023400000008DF802408DF803506946484600F0C1
:1023500047F82802ADF800008DF802408DF80350D0
:102360006946404600F03CF80820ADF800008DF8C2
:1023700002408DF803506946384600F031F84FF4BA
:10238000F850ADF800008DF802408DF80350694612
:102390000F4800F025F80220ADF8000000208DF86D
:1023A00003006946404600F01BF8A801ADF80000A4
:1023B0008DF802408DF803606946484600F010F839
:1023C000BDE8F8830008014000100140000C014006
:1023D000001401400149C1F8DC00704700002042B0
:1023E000F0B5CC78002204F00F03E40601D58C7818
:1023F00023430C784FF00F0C14F0FF0F4FF0010E39
:102400001BD005680E880EFA02F42640A64210D1B1
:1024100096000CFA06F725EA070703FA06F5CE78C8
:102420003D43282E02D0482E02D002E0446100E055
:102430000461521C082AE5D305600A88FF2A1CD9CA
:102440004468002202F108060EFA06F50E882E40B6
:10245000AE420ED196000CFA06F7BC4303FA06F71B
:10246000CE783C43282E00D14561CE78482E00D14D
:102470000561521C082AE5D34460F0BDF0B5104D4B
:102480006B68440D260184B2C0F30157B440C0F319
:102490000342032F05D0C0020AD503209040834396
:1024A00007E0686823F0706220F07060686002E006
:1024B000A34343F0706201B122436A60F0BD0000A3
:1024C000000001404161704701617047FEE7000074
:1024D00008B501211C2000F085F94FF40050ADF83B
:1024E000000010208DF8030003208DF802006946DB
:1024F0000148FFF775FF08BD0010014008B5012134
:102500001C2000F06FF90420ADF8000010208DF8B9
:10251000030003208DF8020069460248FFF760FFC0
:1025200008BD00000010014008B501211C2000F08A
:1025300059F90820ADF8000010208DF803000320A1
:102540008DF8020069460248FFF74AFF08BD000007
:102550000010014010B51CA088B0D0E90010CDE9F2
:10256000031002F0B5F902F08FFA802000900123E9
:10257000A822C02105A800F052F8FF2300241A4623
:10258000194606A8009400F04AF80120034600907E
:10259000A822C02107A800F042F803A800F02AFAF8
:1025A0000B480C490094CDE9011007AB06AA05A918
:1025B000094802F0A5FA084802F0DCFA064802F0E1
:1025C0001BFB08B010BD000000000003020100006A
:1025D00065390008B9390008D800002031B50B4C26
:1025E00000992068081AFA2802D3216004F0FAFA48
:1025F00000986168401A41F28831884205D30098FA
:102600006060BDE8384001F083B938BD100000209B
:10261000014801F0F1B90000D8000020FEE770B5D4
:102620000446080640EA0240049D40EA032028438D
:1026300001F0D5FA206070BD704738B500214FF029
:10264000006000F09FF84FF4A06000F081F83D209A
:102650008DF8000000258DF801508DF802500124FE
:102660008DF80340684600F041F814208DF8000012
:102670008DF801408DF802508DF80340684600F057
:1026800035F840208DF8000002208DF801008DF80B
:1026900002508DF80340684600F028F825208DF898
:1026A000000003208DF801008DF802508DF80340E2
:1026B000684600F01BF826208DF8000004208DF8F5
:1026C00001008DF802508DF80340684600F00EF8C6
:1026D0001C208DF800008DF801408DF802408DF827
:1026E0000340684600F002F838BD000030B50F2303
:1026F000C27801780125F2B1144A126801F1E02193
:1027000002F4E062C2F5E062120AC2F10404D340AE
:102710004278A24084781C401443220181F80024AE
:10272000007800F01F018D404009800000F1E0209A
:10273000C0F8005130BD01F01F00854048098000FD
:1027400000F1E020C0F8805130BD00000CED00E049
:102750000249084302490860704700000000FA057A
:102760000CED00E00907090E002806DA00F00F0062
:1027700000F1E02080F8141D704700F1E02080F89F
:1027800000147047024A114001430248016070473B
:1027900080FFFF1F08ED00E070470000044A002999
:1027A000516901D0014300E081435161704700004D
:1027B00000100240044A0029916A01D0014300E060
:1027C000814391627047000000100240044A0029D2
:1027D000D16901D0014300E08143D161704700001D
:1027E00000100240044A0029916901D0014300E031
:1027F000814391617047000000100240F0B52C4BFE
:1028000059682C4A11F00C014FF00F0604D02A4CE5
:10281000042903D0082903D0026028E0046026E0E0
:1028200059685A6806EA914102F480320D2901D0B4
:10283000891C00E00621BAB1DA6A12F4803FDA6A34
:1028400002F00F0202F101020AD0DD6AC5F303179C
:10285000DD6A7F1CB4FBF7F4C5F30325AD1C6C43A4
:10286000B4FBF2F24A43D7E7144A51430160596876
:10287000134A06EA1111545C0168E14041605C684A
:10288000072505EA1424145D21FA04F484605C68C9
:1028900005EAD424125DD140C1605A68032303EADB
:1028A0009232074B1B1F9A5CB1FBF2F10161F0BD44
:1028B0000010024000127A0040787D0100093D00BE
:1028C00034000020034600205909094A01290AD092
:1028D00002290AD0516A03F01F02012393400B42E0
:1028E00000D0012070471168F5E7116AF3E7000096
:1028F000001002400149C8717047000000100240FA
:10290000014908677047000000004242034AD16A4B
:1029100021F470410143D162704700000010024071
:10292000704700000CB500222E4800920192016809
:1029300041F4803101604FF4A063016801F400317B
:1029400001910099491C0091019911B9009999428E
:10295000F3D10168890342D50121019122490A6816
:1029600042F010020A600A6822F003020A600A6854
:1029700042F002020A60416841604168416041687A
:1029800041F480614160C16A184A1140C162C16A64
:10299000174A1143C162016841F08061016001681A
:1029A0000901FCD5416821F47C114160416841F482
:1029B000E8114160016841F080710160016889019E
:1029C000FCD5416821F003014160416841F00201FA
:1029D00041604168C1F381010229FAD10CBD019225
:1029E000FEE70000001002400020024000F0FEFF61
:1029F00044060100084902780A7042784A708278D9
:102A00008A70C278CA7002790A7142794A710146A5
:102A10000020FFF7F9BA00005400002000F086B94A
:102A20000F48016841F00101016041680D4A114001
:102A3000416001680C4A11400160016821F4802165
:102A40000160416821F4FE014160016821F0A0515C
:102A500001604FF47F0181600021C162FFF762BF16
:102A6000001002400000FFF0FFFFF6FE10B5044C1E
:102A70006068FFF7AFF86068BDE81040FFF7AEBDD3
:102A80000000002030B585B0FFF7CAFF01214804DF
:102A9000FFF79CFE01214FF4E030FFF77FFE01219C
:102AA00040F27D20FFF79EFEFFF7C7FDFFF716FC03
:102AB00000F0F4FBFFF7C8FB6846FFF79FFE0098A5
:102AC0006421B0FBF1F14FF0FF35B1F1807F0DD201
:102AD00021F07F404FF0E024401E60610F21284626
:102AE000FFF740FE0020A061072020610121284659
:102AF000FFF738FE05B030BDF8B50D460646DDE9F6
:102B00000601120642EA034242EA0020084301F0AD
:102B100066F8009003F03EF804000FD032460849F2
:102B200002F04EFB002809D1064B2A466946204692
:102B300002F0F4FB0449204603F067FEF8BD0000F4
:102B40002C6F0008ED2C00084D2B00082DE9F047F4
:102B5000140008464FF000067DD0218903F066FE80
:102B6000DFF824A1DFF824812546B14628896428AE
:102B700072D86168002053468A7900EBC0015F5C1F
:102B800097420FD10020CA1866681718365C401C9F
:102B90007E700628F8DB606801268079585482F838
:102BA000079025E0401C6428E7DB0EBB002000EB0B
:102BB000C001595C914218D0D8F80470002007EB8E
:102BC000C706F118626801EB000C125C401C8CF81F
:102BD00001200628F6DB606880799855002681F888
:102BE00007907F1CC8F8047002E0401C6428DEDBFC
:102BF000D8F804104046642902D14946C0F8049030
:102C000001EBC10000EB0A01204806220830083918
:102C1000FDF794FD1EA000F0B1FA0A2000F087FC39
:102C20001DA000F0ABFA0A2000F081FC1DA000F00E
:102C3000A5FA4FF4FA77384600F079FC1DA000F0B1
:102C40009DFA384600F073FC104920A0083100F0CE
:102C500095FA0A2001E00EE00FE000F068FC1A216E
:102C60001BA000F08BFA0A2000F061FC2D68002DFB
:102C70007FF47CAF01E002F001FB204602F0F6F8A1
:102C80000020BDE8F087000008010020200000209F
:102C900041540D0A0000000041542B434D47463D6E
:102CA000310D0A0041542B435343533D2247534DAA
:102CB000220D0A0041542B434D47533D22313335F9
:102CC0003539373235323130220D0A002573000094
:102CD0002563000070B5044692B2012303F0A7FFFC
:102CE0000546204602F092FF284670BD002070473E
:102CF00010B501218C07204600F00CF8002805D003
:102D00002046BDE81040012100F001B810BDC943C4
:102D10000182704702460020138A92890B4202EA20
:102D2000010202D0002A00D0012070470248416809
:102D30000A314160704700000000002010B50E4CC1
:102D40002021204600F04AFB002814D0204600F045
:102D5000C9FBC1B20948412908D0422909D04329F9
:102D600009D10821BDE81040FFF7AEBB4FF4005178
:102D7000F8E70421F6E710BD004C004000100140C8
:102D800038B527A0274C006800902021204600F08D
:102D900025FB002842D0204600F0A4FBC0B2224D03
:102DA000224C412815D0422826D0432836D120A0D5
:102DB00000F066F908212846FFF786FBFEF7E4FEDF
:102DC00018B102226946FFF785FF2046FEF7FFFE95
:102DD000F4E719A000F054F94FF400512846FFF72A
:102DE00073FBFEF7D1FE18B102226946FFF772FFAE
:102DF0002046FEF7ECFEF4E711A000F041F90421B3
:102E00002846FFF761FBFEF7BFFE18B102226946B4
:102E1000FFF760FF2046FEF7DAFEF4E738BD00005A
:102E2000410000000050004000100140FFFF0F0073
:102E300023364743310D0A0023314743310D0A0041
:102E400023324743310D0A0070B50D4C40F2255531
:102E50002946204600F0C9FA18B12946204600F05C
:102E60000DFA40F227752946204600F0BEFA0028E8
:102E700005D029462046BDE8704000F0FFB970BD7E
:102E80000038014030B5044687B0012144F2090002
:102E9000FFF7A8FC01210420FFF7F0FA0020ADF8AD
:102EA00004000094ADF80600ADF80800ADF80C0081
:102EB0000C201F4CADF80A006946204600F0CCFA01
:102EC000012240F22551204600F0AEFA01212046B1
:102ED00000F0DAF918208DF8130003248DF8124061
:102EE0004020144DADF8100004A92846FFF778FAE9
:102EF00048218DF813108DF812408020ADF8100095
:102F000004A92846FFF76CFA4FF4E060FFF720FCB5
:102F100025208DF814008DF815408DF816400120FD
:102F20008DF8170005A8FFF7E1FB07B030BD0000E2
:102F300000380140000C01400FB4C92170B5B4B095
:102F4000002439AB6846389AFDF7C4F90C4D6E463B
:102F50000DE0315D641CE4B2284600F0C7FA402160
:102F6000284600F03BFA0028F9D0C82C04D2684665
:102F7000FDF7ECFAA042ECD834B070BC5DF814FB5D
:102F80000038014070B5012080F310880D4C40F2EC
:102F900025552946204600F028FA18B12946204632
:102FA00000F06CF940F227752946204600F01DFA22
:102FB00018B12946204600F061F9002080F31088FE
:102FC00070BD00000044004030B5044687B00121C8
:102FD0002120FFF707FC01214804FFF7F7FB01213F
:102FE0000820FFF74BFA0020ADF804000094ADF87C
:102FF0000600ADF80800ADF80C000C201E4CADF832
:103000000A006946204600F027FA002240F22551C6
:10301000204600F009FA0121204600F035F9182079
:103020008DF8130003248DF812402020134DADF8C5
:10303000100004A92846FFF7D3F948218DF8131092
:103040008DF812404020ADF8100004A92846FFF783
:10305000C7F94FF4E060FFF77BFB26208DF81400E2
:103060008DF815408DF8164001208DF8170005A841
:10307000FFF73CFB07B030BD0044004000140140A6
:103080000FB4C92170B5B4B0002439AB6846389A82
:10309000FDF720F90C4D6E460DE0315D641CE4B285
:1030A000284600F023FA4021284600F097F900282E
:1030B000F9D0C82C04D26846FDF748FAA042ECD8F3
:1030C00034B070BC5DF814FB0044004070B5044699
:1030D00086B001211020FFF785FB0121C804FFF70E
:1030E00075FB00940024ADF808400C20214DADF88C
:1030F0000440ADF80A00ADF80640ADF80C40694652
:10310000284600F0A9F9012240F22551284600F096
:103110008BF90121284600F0B7F818208DF813002C
:1031200003258DF812504FF48060134EADF8100057
:1031300004A93046FFF754F948208DF813008DF8A4
:103140001250F014ADF8100004A93046FFF748F90A
:103150004FF4E060FFF7FCFA34208DF814008DF88E
:1031600015508DF816508DF8174005A8FFF7BEFAD8
:1031700006B070BD004C0040001001400FB4C921E2
:1031800070B5B4B0002439AB6846389AFDF7A2F8A0
:103190000C4D6E460DE0315D641CE4B2284600F033
:1031A000A5F94021284600F019F90028F9D0C82CCB
:1031B00004D26846FDF7CAF9A042ECD834B070BC1E
:1031C0005DF814FB004C004030B5044687B0012187
:1031D0003020FFF707FB01210805FFF7F7FA0094FD
:1031E0000024ADF808400C20214DADF80440ADF8A6
:1031F0000A00ADF80640ADF80C406946284600F0DC
:103200002BF9012240F22551284600F00DF9012149
:10321000284600F039F818208DF8130003258DF8A2
:1032200012504FF48050ADF8100004A91148FFF778
:10323000D7F848208DF813008DF812500420ADF80F
:10324000100004A90C48FFF7CBF84FF4E060FFF73B
:103250007FFA35208DF814008DF815508DF8165032
:103260008DF8174005A8FFF741FA07B030BD000000
:103270000050004000100140001401400A0A0121E2
:103280009140C943018070470029818902D041F4EF
:10329000005101E021F40051818170472DE9F04F88
:1032A00085B0012144F22500FFF79CFA4FF400702D
:1032B000ADF800001827454D8DF8037003248DF8F4
:1032C000024069462846FFF78BF82E15ADF80060DE
:1032D0004FF0040B8DF803B08DF802406946284684
:1032E000FFF77EF84FF4805900254FF4E138ADF830
:1032F0000890ADF80C604FF00C0ACDF80480ADF8E2
:103300000A50ADF81050ADF80EA001A9304800F0F9
:10331000A3F8012240F225512D4800F085F8012143
:103320002B48FFF7B1FF40F226612948FFF7A6FFBF
:1033300001214804FFF74AFA01210820FFF79EF80F
:103340002020ADF800008DF80370224F8DF8024068
:1033500069463846FFF744F84020ADF800008DF884
:1033600003B08DF8024069463846FFF739F8ADF8EA
:103370000890ADF80A50ADF81050174DADF80C603C
:10338000CDF80480ADF80EA001A9284600F064F83D
:10339000012240F22551284600F046F80121284636
:1033A000FFF772FF40F226612846FFF767FF102003
:1033B000ADF800008DF802408DF8030069463846EC
:1033C000FFF70EF805B0BDE8F08F000000080140DF
:1033D0000038014000140140004400400246002033
:1033E00012880A4200D00120704770B501F01F0515
:1033F00001260024C1F3421306FA05F2012B0FD077
:10340000022B0FD0838A4FEA11210088134206FA5B
:1034100001F600EA060001D000B10124204670BD8B
:103420008389F0E7038AEEE710B5C1F3421301F098
:103430001F040121A140012B07D0022B07D014301B
:10344000002A026805D00A4304E00C30F8E7103087
:10345000F6E78A43026010BD30B50446008A85B0A5
:103460000D464CF6FF710840E98801432182A0898E
:103470004EF6F3110840A9882A8911436A8902434C
:103480001143A181A08A4FF6FF410840A989014359
:10349000A1826846FFF7B2F91148844201D103982E
:1034A00000E00298642200EBC00101EB00102968E3
:1034B0006FF018058900B0FBF1F0B0FBF2F10901E3
:1034C0000B096B4300EB8300322303EB0010B0FBCE
:1034D000F2F000F00F000843208105B030BD00007D
:1034E000003801408088C0F308007047C1F308012C
:1034F00081807047FEE7490050EAC12018BF0420D0
:103500004A0D18BF40F0010040F2FF72B2EB515F6C
:1035100008BF40F00200012808BF0520704730387E
:103520000A2801D20120704700207047704700B57B
:1035300002464FF47A7302E0184600F004F8521E77
:1035400092B2F9D200BD00EBC000C1004FF0E02004
:10355000416100218161052101610169C903FCD537
:103560000421016170472DE9F84390460E4605009D
:103570005CD0B8F80A002A2855D30120D8F80440B6
:1035800000F02FFBE18988424DD140F2046000F049
:1035900028FB618A884246D14FF4006000F021FB8D
:1035A000218A88423FD140F6060000F01AFBA1892B
:1035B000884238D1E0690090D4F82610686818B1C4
:1035C000814203D1012702E0002703E000270FB169
:1035D000012300E0002304F116026946284603F0A7
:1035E00005FCA08A00F0FDFA01281CD1DFB1022001
:1035F00000F0F7FAA082E069C4F826006868E0618C
:103600000622521E12F0FF0204EB0200817D80F8B8
:103610002010A154B15C8175B15C8171F1D1AA69AE
:10362000414628469047404601F020FCBDE8F8831B
:1036300030B400280ED0496882684468D1F81A3046
:1036400014401340A34205D100238A1D30BC1A3117
:1036500003F0CCBB30BC70472DE9FC410E4605465B
:1036600014460E21304601F023FC18B16FF0010022
:10367000BDE8FC812946204600F0A4FB08B1234B9D
:1036800028E04FF0704001F0C5FA216800EA010718
:103690004FF0604001F0BEFA874222D101208DF840
:1036A000000000208DF801005E208DF802002068E7
:1036B00001F0B0FAC0F306408DF80300206801F075
:1036C000A9FA000A8DF80400206801F0A3FA8DF829
:1036D00005006B4605F121023146284600F0FCF852
:1036E000C6E7A86821686A6801400240914203D099
:1036F000E86838B105F10C0432462146284600F04E
:1037000007F8B5E76FF00300B2E70000306F00087C
:103710002DE9F05F0E46824600F1210B17464FF06F
:10372000FF385146304600F04DFB08BB4FF070406B
:1037300001F070FA316800EA01044FF0604001F0D6
:1037400069FA844214D09EB1306888B101213046B4
:1037500000F08EF900280DDBDFF8B49000EB800557
:1037600009EB8504A07B38B1012807D037B10BE005
:103770006FF00900BDE8F09F0120A073314650466C
:1037800000F098F880462FB3A07B4E46022802D066
:10379000012808D03AE004F108035A463946504659
:1037A00000F09AF831E000213C46207B012803D14B
:1037B0002468002CF9D171B121890022032001F085
:1037C0002DFA040022D0394601F0D4FA40B1204647
:1037D00001F04CFB1AE03C46384601F0C0FBACB1AE
:1037E000062001F07DF90100F1D00020C1E90004BC
:1037F00056F8250008B905E010460268002AFBD1FA
:10380000016001E046F82510002080464046B1E7FF
:10381000449500202DE9F05F1746DDE90B9B8846B3
:1038200082461E4600222A21032001F0F7F90500F6
:103830003CD06C680D9800F0D4F9A0820620401EA0
:1038400010F0FF0004EB0001325C8A7519F80020CB
:1038500081F820203A5C225418F800208A71EED1B9
:103860000A980068E061DBF80000C4F82600012037
:1038700000F0B7F9E0814FF4006000F0B2F9208267
:1038800040F2046000F0ADF9608240F6060000F0FE
:10389000A8F9A081DAF81820504629469047044636
:1038A000284601F0E3FA2046BDE8F09F4FF0FF30D4
:1038B000FAE700001FB50123064C021DCDE90213F3
:1038C000CDE9002400F121031946A21FFFF7A2FF52
:1038D00004B010BD366F00082DE9F0414D680E466A
:1038E00007460624641E14F0FF0405EB0401185D6E
:1038F0002855105D8871F5D14FF4006000F071F922
:10390000A88131463846BA69BDE8F0411047000049
:103910002DE9F0410024124FA04604EB840507EB8B
:103920008506F07B401CC0B2F073B17B022902D047
:10393000012903D00DE0F02802D20AE0022808D3C2
:1039400057F8250018B100F03BF947F8258086F8B4
:103950000E80641CE4B20A2CDFD3BDE8F0810000C5
:103960004495002070B5044640680D46808900F0FB
:1039700038F9B0F5006F04D0A0F5006006380AD120
:1039800012E021462846FFF753FE6FF00D01204656
:1039900001F08EFA18B1204601F068FA0AE02946D3
:1039A000204600F0BFFA05E0224605F12101284635
:1039B000FFF7D9FD002070BD10B50446082000F0C7
:1039C000A1FF90B17321E06184F82B10742184F879
:1039D0002C10074961610749A16104F121010160CF
:1039E000204600F0C9FD002010BD4FF0FF3010BD93
:1039F00059360008014600082DE9FE43814600259E
:103A00006846FEF757FBDDE901710098884681B2F0
:103A10000322104601F002F906000AD00446791983
:103A200062896068FCF7FCFD608924680544002C0D
:103A3000F5D10E484FF00041C8F800104169090661
:103A400003D5802141610021816066B1D9F8102041
:103A5000494630469047040002D0304601F006FA4D
:103A60002046BDE8FE834FF0FF30FAE700900240A9
:103A70002DE9F35F4FF00A0A4FF00001DFF824B19F
:103A80000400D14652468C460F46D0460E4611D011
:103A90004548057805EB85030BEB8300837B022B00
:103AA00008D123684068834204D168B2BDE8FC9F16
:103AB0000A2A07D1DFF8ECE001EB81030EEB83006B
:103AC000807B48B101EB810B0EEB8B00837B012BDC
:103AD00004D0022B18D026E04AB224E01CB123689F
:103AE0004568AB4215D05EF82B3033B1C57BB5428B
:103AF00019D34FFA81F82E4615E0C37B634512D3E4
:103B00004FFA81FA9C460EE03CB123684568AB420F
:103B100003D12548017048B2C8E7C07BB84202D340
:103B20004FFA81F90746491CC9B20A29C0D34FF0A0
:103B3000FF310A2A02D10198C00731D001988007CD
:103B40002ED44FF0000B0A2A01DAD5B219E0B9F1F0
:103B50000A0F02DA09F0FF0513E0BAF10A0F02DAE0
:103B60000AF0FF050DE0B8F10A0F19DA08F0FF05B9
:103B70000C4F05EB850657F8260000F021F847F8B2
:103B800026B0084805EB850200EB8200594680F814
:103B90000EB00CB122684260C1730348057084E71F
:103BA000084683E744950020D000002003490A8896
:103BB0005206FCD5C2B28A80704700000050004017
:103BC00070B5044608E02546D5E9004001F04EF9FD
:103BD0002946062000F04CFF002CF4D170BD00BA3D
:103BE000704740BA70470A46032100F08AB82DE9B1
:103BF000FE4F446805468A46208801F00DF8C0F360
:103C000003204FEA8009C9F100018846284601F0E7
:103C10004FF9002870D1288904286DD3686800788E
:103C2000082869D101264FF0704000F0F3FF2169A8
:103C300000EA01074FF0604000F0ECFF874200D13E
:103C40000026514604F1100000F0BCF8002853D1C2
:103C5000002E51D0288908284ED3284600F08EF82F
:103C6000E8BB2221284601F023F9D0B14946284675
:103C700001F01EF998BB29890022022000F0CEFF36
:103C8000060039D0294601F075F840BB4146304660
:103C9000746801F00DF910BB284601F0E7F83546CD
:103CA00005E06FF02101284601F002F9B8B9686813
:103CB000E1682269E2602161002606704680208961
:103CC00000F0AAFFC0B240F47F40FFF78AFF2081D6
:103CD00066814946284601F0EBF800B900E00BE0A8
:103CE0000121CDE90061FF230022CDF808A004F1F5
:103CF0000C01284600F0E2F92846BDE8FE4F01F02D
:103D0000B5B82DE9FC4791460E4680460022242195
:103D1000012000F083FF050024D06C68D8F80470FF
:103D20001C22267084F801900026A680E680686830
:103D3000D8F804100830FCF773FC668069892046C7
:103D400000F016F860800120CDE90060FF2307F144
:103D50000C020021284600F097F92846BDE8FC47F0
:103D600001F084B8BDE8FC870A460B21FFF7C9BF04
:103D700010B500F05BFCC04380B210BD70B50024EC
:103D80000546264613E06989686800F04FFC204428
:103D900081B201EB1044A87AC00707D0C6F1010038
:103DA000C6B2E0B2C4F3072141EA00242D68002D19
:103DB000E9D126B1E0B2C4F3072141EA0024E0438F
:103DC00080B270BD0068421C12D088B191F82A20E0
:103DD00092070BD54A68824208D0896800EA01033D
:103DE0000A40934202D10143491C01D00020704790
:103DF000012070472DE9F74F84B0022205984FF05B
:103E0000140B0021068D104600F008FF5FEA000A3F
:103E100023D04348AAF80A60AAF8086020F00305F6
:103E2000CAF804500498142241682846FCF7F8FBAD
:103E3000E88800F0F1FEC0F30C0700F40050029097
:103E400004980089143884B2143EF01706EB5070C1
:103E5000C0F3CF00CDE9000651E04FF0FF3007B0CE
:103E6000BDE8F08F0198844201DC012000E00020D1
:103E70005FEA00090298C7F30C0646EA000645D03F
:103E8000204680B2804602465B4605F11401049844
:103E900000F0B8FF58441FFA80FB3046FFF7A1FE40
:103EA000E88008F1140080B2FFF79BFE68800020D4
:103EB000688114212846FFF75BFF6881B9F1000F84
:103EC00005D004F1140081B2504601F021F800221F
:103ED0001146022000F0A2FE06001CD0514600F060
:103EE00037FF05983146069A43699847304600F0F7
:103EF000BDFFA4EB080084B20098384487B2002CC0
:103F0000B0D1504600F0B2FF0020A8E7009846F478
:103F10000056C000B5E7504600F0A8FF9DE700003E
:103F2000668F00202DE9F0474568064688462888B8
:103F300000F072FE0421B1EB103F12D1288800F08E
:103F40006BFEC0F303204FF6FF7101EA800468881E
:103F500000F062FE01467089A04202D33089884297
:103F600003D2304600F082FF51E0304600F0D0FF2F
:103F7000DFF80C910127444605F1100A204600F0B5
:103F8000E3FD58B1201D09D0606838B1296981422C
:103F90000FD021465046FFF715FF50B91FB100273B
:103FA000D9F8004000E02468444500D12468002C82
:103FB000E4D1414605F10C00FFF704FF0028D0D101
:103FC0004FF07049484600F025FEE9684FF0604A1E
:103FD00000EA0107504600F01DFE8742C1D0002CC8
:103FE000BFD043F6FF70FFF7FCFDE988084205D01B
:103FF000304600F0C9F8060009D07568214C4146EA
:104000003046C4E9018500F0DBFF18B134E0002040
:10401000BDE8F087288900F0FFFDC0B2012813D069
:1040200006280CD01128414605D005F11000FFF7F5
:10403000C9FE70B11DE0304602F03AFE1CE0414678
:10404000304601F081FB17E041463046FFF7CFFDD7
:1040500012E0484600F0DEFD296900EA01075046FB
:1040600000F0D8FD874204D0022130467560FFF78A
:10407000BAFD304600F0FAFE00206060A060C6E79E
:10408000B0000020BC0000202DE9FE438146DDE9A0
:104090000A541F4616468846104600F049FA50B1A9
:1040A0000095CDE901403B4632464146484600F086
:1040B00005F8BDE8FE836FF00300FAE72DE9F05F35
:1040C0001F46DDE90BA5DDF828B05FEA0208894646
:1040D000064641D01421304600F0EAFE18B16FF0D8
:1040E0000100BDE8F09F7468208900F095FD67F33A
:1040F0001F20FFF776FD208100F08EFD20F0FF00ED
:1041000040EA0A00FFF76DFD2081D8F80000206129
:104110001FFA8BF040F48A40FFF763FD208030895E
:10412000FFF75FFD174F60804FF0000AA4F806A06C
:104130003888FFF756FDA0803888401C3880B9F1D8
:10414000000F02D0D9F8000010B9281D00D068680F
:10415000E060A4F80AA002E0706800F11008288D61
:1041600048B13189814206D9424629463046BDE8E8
:10417000F05FFFF73FBE4246314628466B69BDE817
:10418000F05F1847BC0000202DE9F14F0027009890
:104190004468208800F040FDC0F3032005287DD14D
:1041A000E08800F039FDC0044FEA104A608800F052
:1041B00033FD0546208800F02FFDC0F30320404268
:1041C00005EB80001FFA80F9009800F0CAFD594DF8
:1041D0000646288830440A2809D93146204600F08E
:1041E0006DF900285AD0288830440A2856D8A846A5
:1041F0006D684FF0000B0DE06869E168884207D1F7
:10420000A8692169884203D1A889A188884204D07D
:104210002F462D68002DEFD106E02DB1E08800F08B
:10422000FBFCC00424D02EE0052000F059FC050062
:104230000AD13146204600F041F9B04216DB052094
:1042400000F04EFC050011D02021FCF750FA0320AD
:10425000E877D8F8041029601422214605F10800F7
:10426000C8F80450FCF7DCF9C5B10CE05D46FBE78B
:10427000E88900F0D1FCC00405D01422214605F1E4
:104280000800FCF7CDF9B8F800103144A8F8001088
:10429000E08800F0C1FC800408D400E045E0A87F7D
:1042A00040F00100A8770AEB0900A883284600998E
:1042B00000F042F8002836D0A88B14221430A883CE
:1042C000686805F10801466830463468FCF7A8F9CB
:1042D000A88BFFF786FC7080A6F806B0A6F80AB097
:1042E00014213046FFF744FD70816FF0130AD5F8B2
:1042F000049009E051462046666800F0D9FD214649
:10430000484600F011FD3468002CF3D139462846A8
:1043100000F08AF8484600F024FDB8F80020101A92
:10432000A8F800004846BDE8F88F009800F09EFD10
:104330000020F8E7C80000202DE9F047D1F80490EC
:1043400080460E4600240125B9F8020000F064FC06
:104350000746B9F8000000F05FFCC0F303204042BC
:1043600007EB8007B9F8060000F056FCC00472683D
:10437000030C00201060D81993801FFA80FCA2F86B
:1043800006C0D8F804101CE048688788BB420DD2EC
:1043900011603CB1E788BB4236D38088844533D86E
:1043A000266001E0C8F8046069B116E02CD0C1882D
:1043B0008B4229D31CB1E188B94200D000250168A5
:1043C00004460029E0D134B12660E0889188884213
:1043D00003D0002501E0C8F8046098F81E00C0076B
:1043E0000ED065B1D8F804004068808830B91168F3
:1043F00029B14868D1888288914203D00025284697
:10440000BDE8F0870246F2E7304600F0AAFC01461C
:1044100004480288511A0180304600F027FD002030
:10442000EEE70000C8000020074A30B40B4654688D
:104430000168844201D1516000E01960014630BC3E
:10444000052000F015BB0000C80000202DE9F04158
:1044500044680646884660680025818891B90068EE
:104460007060142206F108016068FCF7D9F8012198
:104470002046FFF779FC204600F073FC05462046F5
:1044800000F0F4FC746809E0606827460468384668
:1044900000F067FC0544384600F0E8FC002CF3D13E
:1044A00041463046FFF7C0FF03490888401B08809B
:1044B0002846BDE8F0810000C80000202DE9F04149
:1044C000DFF868800F460546002600221346144692
:1044D000D8F804001AE04169D5F80CC0614509D14B
:1044E0008169D5F810C0614504D18189B5F804C04F
:1044F000614507D0641C22B1C17F92F81FC061459D
:1045000000D80246016801B1034608460028E2D1FE
:1045100022B119461046FFF799FF0644BE4201DA60
:10452000012CD2DC3046BDE8F0810000C80000203C
:1045300070B505460E4804680DE0204600F004FB07
:1045400040B1A0682968626801400240914201D1EF
:10455000204670BD2468002CEFD1064C206820B1A5
:1045600000F0F2FA08B1206870BD002070BD0000B4
:10457000B0000020B400002070B5062100F8201F14
:104580001C490A7842704A7882708A78C270CA7868
:1045900002710A7942714979817140F2DC510181DD
:1045A0003221817214490222A1F5BF50FDF7AAFB06
:1045B00012490422A1F16000FDF766FB0F4D0024B3
:1045C000603D05EB04100121FDF784FB641C042C05
:1045D000F7DB0A4D0024203D4FF4400605EB0410A4
:1045E0003146FDF7B3FB641C022CF7DBBDE87040DD
:1045F000FDF790BD54000020AC1C0020EC0400200E
:1046000070B50C460025FDF7C3FB064607E062893E
:1046100070196168FCF704F8608924680544002C6F
:10462000F5D1A8B2FDF7C6FD002070BD30B4002260
:1046300008E010F8013B1C0210F8013B2343891EDF
:104640001A4489B20129F4D811B1007802EB002292
:1046500090B200EB1240010C02D081B201EB10408D
:1046600030BC80B2FFF7BDBAB4B000263746602137
:104670000DF16C0B1CA8FCF73AF8754800681B900C
:10468000FEF700FAFDF766FFC02101200A46CDE9DA
:10469000000141F69671A823881CFEF72DFA4FF40D
:1046A000E1342046FEF7EEFB2046FEF78DFC4FF48A
:1046B0001650FEF70BFD2046FEF786FDFDF708FFBE
:1046C000FDF71CFFFDF730FFFDF7B7FFDFF884A112
:1046D000DFF884914FF00008604C20212046FEF75F
:1046E0007DFE00284ED02046FEF7FCFEC0B25446A8
:1046F0008AF80000412815D18DF808008DF809804E
:1047000057A0FBF701FE4FF400515748FDF7DCFEC0
:10471000FDF73AFA18B1642202A9FEF7DBFA534812
:10472000FDF755FA2078422814D18DF808008DF84D
:1047300009804FA0FBF7E8FD04214B48FDF7C4FEBC
:10474000FDF722FA18B1642202A9FEF7C3FA47481E
:10475000FDF73DFA2078432814D18DF808008DF834
:10476000098045A0FBF7D0FD08213F48FDF7ACFECE
:10477000FDF70AFA18B1642202A9FEF7ABFA3B482A
:10478000FDF725FA3E4C20212046FEF727FED0B14A
:104790002046FEF7A7FEC0B2452802D0012E08D061
:1047A0000EE0DAF8083000260BF80380CAF808801B
:1047B0000AE0DAF808100BF80100491CCAF80810E2
:1047C000532800D10126D7B300273C4604EBC4018F
:1047D000494406221BA8491CFBF7D7FE50B100250F
:1047E000641C032CF2DB4FF47A70FEF7A0FE3DB39D
:1047F00024A028E004EBC4044D4619F80400412825
:1048000007D121A0FBF780FD4FF400511648FDF7BA
:1048100059FE285D422806D11DA0FBF775FD042135
:104820001148FDF74FFE285D432806D11AA0FBF77B
:104830006BFD08210C48FDF745FE0125D3E704E098
:10484000FFE715B916A0FEF777FBFEF70FF943E770
:10485000F06E000800000020080100200050004019
:1048600023314743310D0A0000100140FFFF0F00C4
:1048700023324743310D0A0023334743310D0A00E9
:1048800000440040315A000023344743310D0A00F0
:1048900023364743310D0A0023354743310D0A00C3
:1048A00030300000002810D008494A6890420CD3EC
:1048B0008A68904209D2002200F8042CCA6808389D
:1048C000904200D2C86000F051BB70479C000020AD
:1048D0000A4810B50A4A20F003014FF40053516012
:1048E0000B8000244C800C7101F500500124906075
:1048F0000471038043801470D16010BDA328002090
:104900009C000020F0B5002847D04FF6FC71C01C79
:1049100000EA01034FF4005C0C2B01D20C2301E0F0
:1049200063453ED8DFF880E0C3F50054DEF80C5054
:10493000DEF80420A81A81B231E0501806796EBB67
:104940000688761A083E9E4228D3048803F114068E
:10495000641A0127083CB44210D30B4408339CB2BC
:10496000131900261E7106881E8059800480077165
:104970001988614503D0931CCC5200E00771A8420E
:104980000AD1DEE902310C7934B1994204D00988A8
:104990001144CEF80C10F6E70830F0BD515A8C42A5
:1049A000CBDC0020F0BD00009C0000202DE9F04F82
:1049B0004FF6FC72C91C11404FF400590C2901D26A
:1049C0000C2101E0494510D8284E7468A0420ED34E
:1049D000B26890420BD2A0F10802131B15889BB25B
:1049E000EF1A083FBFB2B94203D94FF00000BDE84B
:1049F000F08FFCD005EB040C1C4DB2469CF80480F3
:104A0000EE686D684FF0000B05F10205B8F1000F7C
:104A100016D001F1140CBC45E9D8194408318FB205
:104A2000E119B14201D2CAF80C1081F804B014881F
:104A30000C804B80178009884945D8D04F53D6E762
:104A400019440831BCF8007089B2664502D1661875
:104A5000CAF80C600C4484F804B02780638011808D
:104A600022884A45C3D05153C1E700009C00002072
:104A7000002905D0034A52F820300B6042F820107C
:104A800070470000B4480020F0B50020401C80B200
:104A90000928FBD31048104C20F0030100200F4ED2
:104AA0000746273C06F1120544F82070002209E071
:104AB00054F820300B6044F8201036F81030521CA7
:104AC000194492B235F810309342F1D8401C80B2AC
:104AD0000928E9D3F0BD0000DB480020086F00087A
:104AE0000146092801D300207047044A52F82100EA
:104AF0000028F9D0036842F821307047B4480020FC
:104B00002DE9F041044606A890E8E000002060602E
:104B1000A060E06084F82A00E5610A4D287884F8F6
:104B20002D00401C28702046276100F012F8204616
:104B3000B04710B10020BDE8F081686820602046D1
:104B40006C60F8E7AC00002090F82A0000F001004B
:104B5000704770B51D461646044600F015F83146FC
:104B6000204600F045F829462046BDE8704000F098
:104B700007B800000149886070470000AC000020C1
:104B800001B10968C160704770B505460C460868F8
:104B9000696888421ED0144800680AE001686A68A3
:104BA000914205D10121C66800F03EFA304600E08E
:104BB000C0680028F2D10D48006809E007D00168FC
:104BC00029B16A68914202D144B121680160C0688C
:104BD0000028F3D12CB12068686070BD4FF000014F
:104BE000F4E74FF00000F7E7700000206C000020B1
:104BF00001B109688160704790F82A10CA0708D18E
:104C000041F0010180F82A10890602D5011DFEF746
:104C100051BE704700BA704740BA70472DE9F0475F
:104C200017460D46002630B1012805D0022804D0D1
:104C300003284BD102E0142614360E364FF001093A
:104C40004FF00008F7B3012F5CD0022F5AD0032F8A
:104C50003CD10820FFF744FF041E38D0A0191330C0
:104C6000277320F00300C4E90080F61C26F003003F
:104C7000A0F2DC5040422581A84200DD284680B2E7
:104C80006081A4F80E9026462D1A40F2DC5A16E0F8
:104C90000820FFF725FFB0B1077380F80D80C0F83A
:104CA0000080A9B230600181514500D35146418155
:104CB00000F110024260A0F80E906D1A0646002D19
:104CC000E6DC2BE005E0204600F0D0F80020BDE84F
:104CD000F08706F1130020F00301E81C20F0030028
:104CE000084480B2FFF70EFE041EF0D0A019133066
:104CF00020F00300606025816581C4F8008084F89D
:104D00000C800BE00720FFF7EBFE041EDFD0C4F899
:104D1000048025816581C4F800802773A4F80E9073
:104D200084F80D802046D2E710B500280FD0002966
:104D30000DD004E003890C892344038110460268E6
:104D4000002AF7D102890B891A440281016010BD43
:104D500010B50C46FFF7E8FF2046BDE8104000F014
:104D6000FEB8002102E0491C0068C9B20028FAD14F
:104D7000084670472DE9F0474FF000070C46050044
:104D80003E4604D01CB128892189884203D26FF0A5
:104D90000900BDE8F0876FF0080968896189C01BC8
:104DA000891B884201DB88B200E080B280466068DF
:104DB0004246811968683844FBF732FC07EB08006B
:104DC00087B206EB080086B26889B84201D12D6827
:104DD00000276089B04201D8246800262CB1608980
:104DE0002189884201D1206830B93DB1688929897B
:104DF000884203D1286808B14846CAE7002CCCD1C4
:104E00000020C6E72DE9F047164689464FF0000816
:104E1000002806D0B9F1000F02D00027044620E098
:104E20000020BDE8F0872BB16089984202D8181A9B
:104E300083B215E06089C01A85B2B54200D9354603
:104E400060682A46C11809EB0700FBF7E9FB08EB8D
:104E500005001FFA80F8781987B2701B86B200230C
:104E600024680EB1002CDED14046DAE770B5002888
:104E700015D00024C189491E0904090CC1810DD136
:104E8000017B056803290BD001290CD002290AD027
:104E9000FFF708FD641CE4B22800EBD1204670BD8A
:104EA0000146082001E001460720FFF7E1FDF1E798
:104EB00010B541B138B1002907DA4A4293B24289AC
:104EC0009A4223D302E0002010BD8BB2027B4468DB
:104ED00032B1032A04D0022A0AD0012A08D015E0F0
:104EE000621A00F1100342609A4208D244600DE059
:104EF00000290BDA42899A4208D3621A4260428939
:104F00000A444281028911440181DCE7012010BD7D
:104F100070B502898A4221D98A1A0D46044605E0F5
:104F2000281A85B220891044208124686089A8420B
:104F3000F6D3207B50B96089A84207D0A088001B17
:104F4000284481B22046FFF731FD04466581258162
:104F5000206808B1FFF78AFF0020206070BD00289C
:104F600002D0C189491CC1817047000030B5134C83
:104F7000018862681144931C88420DD00D795DB997
:104F8000A568A94208D0E5688D4200D1E0600D888F
:104F900005800988851ACD524188114481420BD081
:104FA0000D79002D08D1E568854200D1E1600488C3
:104FB0000C800088891AC15230BD00009C0000207E
:104FC0002DE9F0474768804600263889FFF724FE20
:104FD000DFF850A000F0FF090025DAF800401CE0DF
:104FE000217C494516D1D4F814C0BCF1000F11D072
:104FF00007F10C0342462146A069E04750B14FF04B
:105000000008012635B1E068E860DAF80010E160D8
:10501000CAF800402546E4680EB9002CE0D13046BD
:10502000BDE8F087B80000202DE9FF5F0446007C52
:105030008B460A2832D0D4F858A0D4F82490BCB3B8
:1050400020680390201D00D060680290268B278C7A
:1050500021461948D4F81480D4F8905000F0CEFFBF
:10506000A06F08B101F09DFC606F08B101F099FCE0
:1050700021460220FFF7FCFC1DB16FF00401404601
:10508000A847BBF1000F07D002AB03AA4946504620
:10509000CDE9006701F029FCBDE8FF9F06482146E5
:1050A000001D00F0ABFF21460220FFF7E1FCF3E713
:1050B000FFE70020C5E70000700000202DE9F04167
:1050C00006460220FFF70CFD3A4D040037D10023BD
:1050D0001A46AC68A86906E0016B611A994201D3CF
:1050E0000B460246C0680028F6D11AB101211046CD
:1050F000FFF79AFF0220FFF7F3FC04001FD17F2780
:105100002346D5F808C068690DE0417CB14209D852
:10511000B94207D8026BACEB0202A24202D314469A
:1051200003460F46C0680028EFD11BB10121184685
:10513000FFF77AFF0220FFF7D3FC040037D0A0214D
:10514000FBF7D5FA402004F8110F40F66830A4F8B8
:105150005D000023A4F85F30A4F81700A4F819003C
:1051600004F8073CFF2004F8060C4FF40670A4F87E
:1051700027000620A4F83700A4F83330A4F835003F
:10518000C01FA4F825000120A4F84100E41D00F090
:1051900035FDE064206460632065A868A061237722
:1051A0000548E0660548E06784F88530183C2046ED
:1051B000BDE8F0815C0000201168000800DD6D0092
:1051C0002DE9F0410546007C0C4618B16FF00C004B
:1051D000BDE8F08112B900F0E1FC024626486FF00C
:1051E0000A0300680BE0018B914207D1A0B301686C
:1051F00091B38CB326687EB3B1422DD0C06800282D
:10520000F1D11D4E103E70690BE0018B914207D128
:1052100010B3016801B3FCB12768EFB1B9421BD0EC
:10522000C0680028F1D1F0680BE0018B914207D1F2
:1052300090B1076887B17CB1216869B18F420BD00A
:10524000C0680028F1D1B06909E0018B914205D115
:1052500001682768B94201D11846B9E7C06800283B
:10526000F3D114B1206800B128602A83F068E860A7
:105270000020F560ACE700006C00002070B504462B
:10528000007C0526082840D2DFE800F0041C252C0D
:105290002C3F3F3420490025C868A04201D1C06896
:1052A00008E0C86138B1C0680028FAD0A042F8D13F
:1052B000E068C969C8600020E06021460220FFF76D
:1052C000D7FB27E0144800252146103000F096FE59
:1052D00021460320F3E7104800252146143000F052
:1052E0008DFEEAE70121204601F068FB050009D1A7
:1052F000267407E00121204601F060FB050001D182
:105300000920207434B115B104E0002502E02046E4
:1053100000F07CFC284670BD5C0000202DE9FC41BB
:105320000446007C1E460F4618B16FF00C00BDE825
:10533000FC812FB1386860602284208B18B105E0B1
:105340006FF00800F3E700F029FC208300F056FC22
:10535000002544F8245F39466063401EA062606403
:1053600040F66830A080E080A56020874FF406708A
:10537000A08200F035F8A08200EB80004FF6FF71AC
:10538000012201EA4000E28520860220134904F848
:10539000140C6666C868243CA04202D1C068C8608C
:1053A00009E0C86138B1C0680028FAD0A042F8D13D
:1053B000CB69E068D8604869E0604C61CDE9005293
:1053C000002202231146204600F01AF8050002D1FF
:1053D000204600F01BFC2846A9E700005C000020E6
:1053E00010B504460846FFF7A3F838B1008D28B180
:1053F000283880B2844200D220460446204610BDA0
:105400002DE9FF4F83B00546119905980843069989
:1054100050EA81706FF0090103D0059828B904980B
:1054200018B1084607B0BDE8F08FB5F86E100598C2
:10543000814205D215F8220F40F080002870FDE06F
:1054400007461198DDF810B0C00700D0042011996C
:10545000890701D50C2100E0002100EB010AA86EAC
:105460000090B5F870600C2EE4D24FF00008CDF833
:105470000480298FA1EB0A00B84200DB38461FFAEE
:1054800080F90420FFF72CFB040056D00020206098
:105490006060B8F1000F21D0019804600194109869
:1054A000C0071DD009EB0A0081B200221046FFF7A9
:1054B000B5FB60600028E8D0FFF753FC304486B2AB
:1054C000049838B160684A46416801EB0A005946C1
:1054D000FBF7A6F860684068A0601EE0A046DDE724
:1054E000002251461046FFF799FB6060002824D047
:1054F000FFF737FC304486B27FB1012249460320D2
:10550000FFF78CFB010013D0C1F804B0761CC4F87F
:1055100008B0B6B26068FFF707FC0C2E0DD8A4F8EF
:105520000C9014216068FFF7C3FC00287AD105E0D5
:105530006068FFF79BFC0020606073E06068406873
:105540002061288BFEF74DFB21690880288CFEF72F
:1055500048FB216948800098FEF741FB21694860BB
:1055600021690020488220698089FFF755FB069950
:1055700020F03F000843FEF734FB21698881119831
:10558000A07320698089FFF747FB4FEA9A0109035E
:1055900000F03F0001F5A0410843FEF722FB21691E
:1055A000CB448881A7EB0900070400983F0C4844CE
:1055B00000907FF45EAF6F6FEFB300E0074638688E
:1055C0000028FBD1BFB338698089FFF725FBC007EE
:1055D00005D138698089FFF71FFB800701D50120BD
:1055E00000E00020B989C84252D038698089FFF7AD
:1055F00013FB80074CD10698800749D1B989B8F8C8
:105600000C000844298F884242D8B97B98F80E00D4
:1056100081423DD10AF114014942D8F80400FFF754
:1056200047FC70B115F8220F40F080002870B8F1E7
:10563000000003D000E028E001F0B3F94FF0FF30A4
:10564000F0E6D8F80400418941B902680021C8F8A1
:105650000420761EB6B20160FFF708FCD8F80410EB
:105660007868FFF761FBB989B8F80C004445084435
:1056700080B2B881D8F800103960414601D13C466B
:1056800081460420FFF7F4F90BE0C5F8748001E0CF
:10569000C7F800800698800703D00598401C80B2A8
:1056A00005900698C00705D095F8220040F020002C
:1056B00085F8220055F8681F059808442860E98895
:1056C0000598081AE8802E8184B1B9F1000F0DD039
:1056D000206958B11099890708D48089FFF79CFA8E
:1056E00040F00800FEF77DFA21698881002099E6E4
:1056F00070B51448446922E0E06F70B1D4F884506A
:105700003DB166690246002321463046A84710B1E4
:1057100003E0FFF7ABFB0020E06794F82200C1072D
:105720000CD040F0020084F82200204600F06EFA0F
:1057300094F8220020F0030084F82200E468002C92
:10574000DAD170BD5C0000202DE9FC470546C04E53
:1057500040680C46B0600088FFF75EFA6968C0F3E5
:10576000032001EB80007060B0680088FFF754FAF6
:10577000C0F30320800041422846FFF799FB002830
:1057800075D12889142872D3B06821461030FEF7ED
:1057900019FB0028F4D14FF07040FFF73BFAB168D5
:1057A000096900EA01044FF06040FFF733FA8442D0
:1057B0005DD070688089FFF72FFA000B80004142AE
:1057C0002846FFF775FB0028DAD170680088FFF7DC
:1057D00023FA0146706801804088FFF71DFA0146F0
:1057E000706841804068FFF715FA014670684160B3
:1057F000F1608068FFF70EFA0146706881603161E0
:10580000C089FFF709FA01467068C1818089FFF7F6
:1058100003FA00F03F0030702989800700D0012092
:1058200008448C4F81B271803B6800221C4621E005
:105830007068B4F820C0B0F80080C44518D1B4F83E
:1058400018C04088844513D1B068D4F804C0D0F89B
:105850000C80C4450CD1D4F800C00069844507D140
:105860001AB1E068D060E3603C602CB154E0EAE03B
:105870002246E468002CDBD17748046827E0706892
:10588000228C03889A4221D1228B408882421DD1EA
:10589000B0686268C3689A4218D12268006982427F
:1058A00014D1F068626A0844821A002A00DD60623E
:1058B00041B194F8220040F0020084F82200204612
:1058C00000F0A4F9204600F0A1F9BCE0E468002C47
:1058D000D5D1624F00223868034619E007D001682D
:1058E00029B1D6F808C0DCF810C061450ED1D6F851
:1058F00004C0018BBCF802C0614507D11AB1C16870
:10590000D160C360386000F0D1F89CE00246C06806
:105910000028E3D1002C6FD0DFF844910027C9F8AC
:1059200000702989A9F80C106968C9E901517168EA
:10593000C9F8101077617770E06F80B1D4F884C037
:10594000BCF1000F08D0D4F8148002460023214691
:105950004046E04710B176E0FFF788FAE767204657
:10596000B46100F07BFBB761401D4DD0707801073A
:1059700007D5D4F8902032B16FF0050160699047E7
:1059800001E0C00608D52146324800F037FB214629
:105990000220FFF76DF837E0B4F86C20002532B133
:1059A000D4F880301BB1214660699847054670697C
:1059B000A0B13178090703D5417B41F00101417362
:1059C000D4F88450CDB1D4F814C002460023214647
:1059D0006046A847050001D07069E06770788006CE
:1059E00008D5D4F8845065B100231A462146606971
:1059F000A84705462DB107E010E00025FFF736FA6D
:105A0000ECE7204600F002F9D9F804004C460028E3
:105A100002D0FFF72BFA6760BDE8FC8770688089C9
:105A2000FFF7FAF840070ED4706801884088CDE986
:105A300000017188F068B368014403F110020C336F
:105A4000306900F052FF2846BDE8FC47FFF70EBA68
:105A50007C00002070000020740000206C000020FA
:105A60008C2800207CB50446002214210120FFF779
:105A7000D5F8050018D0A06D401EFEF7B0F803461B
:105A800000222946204600F025FA06210020CDE913
:105A90000001E37A221D21462846FEF7F5FA284642
:105AA000BDE87C40FFF7E2B97CBD00007CB5374E15
:105AB00005463078C10610D5706801884088CDE968
:105AC00000017188F068B3680144306903F1100285
:105AD000401C0C3300F009FF55E0800753D5687C6B
